S0140000554152545F4144435F504F542E737265635B
S11300000C9434000C9451000C9451000C94510045
S11300100C9451000C9451000C9451000C94510018
S11300200C9451000C9451000C9451000C94510008
S11300300C9451000C9451000C9451000C945100F8
S11300400C9451000C9451000C947E030C945100B8
S11300500C9451000C94BE010C9451000C9451006A
S11300600C9451000C94510011241FBECFEFD8E022
S1130070DEBFCDBF11E0A0E0B1E0E2E1FAE002C0F2
S113008005900D92AA32B107D9F721E0AAE2B1E0B6
S113009001C01D92A434B207E1F70E9463030C94DB
S11300A007050C940000CF92DF92EF92FF92CF935A
S11300B0DF936B017C0182E190E00E94A803EC01D4
S11300C0C6010E94A803998B888B188219821A8210
S11300D01B821C821D821E821F82188619861A8624
S11300E01B86CC86DD86EE86FF86CE01DF91CF911E
S11300F0FF90EF90DF90CF900895FC01A089B18923
S113010084819581A80FB91F6C9384819581A68100
S1130110B7810196A11DB11D84839583A683B783FE
S1130120448555856685778584179507A607B7079F
S113013024F0148215821682178280859185A28507
S1130140B38584179507A607B7074CF40196A11D3C
S1130150B11D80879187A287B38781E0089580814C
S11301609181A281B3810196A11DB11D84179507C8
S1130170A607B70734F480839183A283B38380E016
S11301800895108211821282138280E00895FC0186
S113019080859185A285B385892B8A2B8B2B71F160
S11301A0A089B18980819181A80FB91F8C91DB014D
S11301B08C9380819181A281B3810196A11DB11D8F
S11301C080839183A283B38344855585668577852F
S11301D084179507A607B70724F0108211821282AC
S11301E0138280859185A285B3850197A109B10900
S11301F080879187A287B38781E0089580E008957E
S1130200F894E2ECF0E080818F77808380818F7BAB
S1130210808380818F7D808380818F7E80838081B5
S1130220877F8083808186608083E1ECF0E0808139
S11302308B7F8083A0ECB0E08C9182608C938FECF8
S113024090E09093C5008093C4008081886080838F
S11302508081806180838081806880837894089520
S113026060E170E080E090E00E94530090933201DE
S11302708093310160E170E080E090E00E945300DF
S11302800E94000108956F927F928F929F92AF9285
S1130290BF92CF92DF92EF92FF920F931F93CF936F
S11302A0DF93F894C0913101D0913201088519850A
S11302B02A853B85012B022B032B59F114161506B5
S11302C01606170654F54A015B017C0100E010E0B4
S11302D0980166246394712CC12CD12CB701600F52
S11302E0711FCE010E94C70088859985AA85BB85A8
S11302F0892B8A2B8B2BA9F0062D172D82E08816CB
S11303009104A104B10454F761E070E080E090E04E
S11303100CC060E070E0CB0108C060E070E0CB018D
S113032004C061E070E080E090E07894DF91CF91C8
S11303301F910F91FF90EF90DF90CF90BF90AF90FF
S11303409F908F907F906F900895E0ECF0E0908103
S113035095FFFDCF8093C6000895CF93DF93EC0102
S1130360F8948881882331F021960E94A50189910F
S11303708111FBCF7894DF91CF9108951F920F9252
S11303800FB60F9211242F933F934F935F936F9364
S11303907F938F939F93AF93BF93EF93FF93CF93E9
S11303A0DF9300D000D0CDB7DEB780917800909174
S11303B0790090932D0180932C014AE0BE016F5F78
S11303C07F4F0E94D20480912B01811105C086E0E9
S11303D091E00E94AD010DC0813029F48CE091E0E0
S11303E00E94AD0106C0823021F482E191E00E94B6
S11303F0AD01CE0101960E94AD018AE00E94A501E3
S11304000F900F900F900F90DF91CF91FF91EF918C
S1130410BF91AF919F918F917F916F915F914F9118
S11304203F912F910F900FBE0F901F90189581113F
S113043011C010922B01ECE7F0E08081877F80836C
S113044080818B7F808380818D7F808380818E7F7C
S113045080830895813089F480932B01ECE7F0E0E8
S11304608081877F808380818B7F808380818D7F63
S113047080838081816080830895823081F48093B9
S11304802B01ECE7F0E08081877F808380818B7F84
S113049080838081826080838081816080830895ED
S11304A0F894ECE7F0E080818F7D808380818F7702
S11304B0808380818064808380E00E941702EAE761
S11304C0F0E0808180688083808181608083808186
S11304D0826080838081846080838081886080835F
S11304E078940895FC010A961192E817F907E1F748
S11304F0089580912A018230F1F128F4882361F073
S11305008130E9F0D9C0843009F46EC008F44FC0DA
S1130510853009F483C0D0C0809133018A3341F41B
S11305208093360181E080932F0180932A010895FE
S113053086E391E00E94720210922A01089580914C
S11305403301803589F480912F01E82F082E000CA7
S1130550FF0BEA5CFE4F90E590838F5F80932F0141
S113056082E080932A01089586E391E00E9472025A
S113057010922A01089580913301803389F4809187
S11305802F01E82F082E000CFF0BEA5CFE4F90E3CE
S113059090838F5F80932F0183E080932A010895D5
S11305A086E391E00E94720210922A0108959091CC
S11305B033018FEC890F833080F480912F01E82F71
S11305C0082E000CFF0BEA5CFE4F90838F5F809334
S11305D02F0184E080932A01089586E391E00E942C
S11305E0720210922A010895809133018A3079F4BD
S11305F0E0912F010E2E000CFF0BEA5CFE4F80836E
S113060085E080932A0181E080932E01089586E39A
S113061091E00E94720210922A01089510922E0114
S113062068E171E086E391E00E94C904892B79F4C2
S113063080E00E941702EAE7F0E080818064808312
S113064086E391E00E94720210922A0108956EE1FD
S113065071E086E391E00E94C904892B79F481E07A
S11306600E941702EAE7F0E080818064808386E3D9
S113067091E00E94720210922A01089564E271E0EE
S113068086E391E00E94C904892B79F482E00E94F8
S11306901702EAE7F0E080818064808386E391E0DA
S11306A00E94720210922A01089586E391E00E944A
S11306B0720210922A01089586E391E00E94720268
S11306C010922A0108950E9430010E94500286E38C
S11306D091E00E94720243E050E060E070E083E346
S11306E091E00E94430160933001613021F08091D8
S11306F02E01813081F70E947902EDCF1F920F9273
S11307000FB60F9211242F933F934F935F936F93E0
S11307107F938F939F93AF93BF93EF93FF936091D6
S1130720C60080913101909132010E947D00FF91B9
S1130730EF91BF91AF919F918F917F916F915F9155
S11307404F913F912F910F900FBE0F901F901895CE
S11307500F931F93CF93DF938230910510F482E0BF
S113076090E0E0914201F091430120E030E0A0E00C
S1130770B0E0309719F1408151810281138148170B
S11307805907C8F08417950769F4109731F0129649
S11307900C93129713961C9327C000934201109355
S11307A0430122C02115310519F04217530718F4EB
S11307B09A01BD01EF01DF01F801DBCF21153105FD
S11307C0F9F0281B390B2430310580F48A819B8190
S11307D06115710521F0FB019383828304C090931A
S11307E0430180934201FE01329644C0FE01E20FB0
S11307F0F31F8193919322503109398328833AC09E
S11308002091400130914101232B41F420910201B8
S11308103091030130934101209340012091000164
S1130820309101012115310541F42DB73EB74091B6
S1130830040150910501241B350BE0914001F09116
S11308404101E217F307A0F42E1B3F0B28173907C9
S113085078F0AC014E5F5F4F2417350748F04E0F18
S11308605F1F50934101409340018193919302C0D3
S1130870E0E0F0E0CF01DF91CF911F910F91089557
S1130880CF93DF93009709F481C0FC013297138260
S11308901282A0914201B0914301109781F420810A
S11308A03181820F931F209140013091410128171B
S11308B0390751F5F0934101E093400167C0ED0120
S11308C020E030E0CE17DF0740F44A815B819E01CF
S11308D041155105F1F0EA01F5CFD383C28340817C
S11308E05181840F951FC817D90759F488819981BC
S11308F0840F951F0296918380838A819B819383C1
S113090082832115310529F4F0934301E0934201D8
S11309103DC0E901FB83EA8349915991C40FD51F76
S1130920EC17FD0761F480819181840F951F029675
S1130930E90199838883828193819B838A83E0E0A0
S1130940F0E012968D919C911397009719F0FD0198
S1130950DC01F7CF8D919C9111979D012E5F3F4F44
S1130960820F931F209140013091410128173907CC
S113097069F4309729F4109243011092420102C0A5
S113098013821282B0934101A0934001DF91CF9171
S11309900895FB01DC018D91019080190110D9F3B8
S11309A0990B0895BB274A3031F4992322F4BDE210
S11309B0909581959F4F0C94DE04BB27FB0155272E
S11309C0AA27880F991FAA1FA41710F0A41B8395A8
S11309D05051B9F7A05DAA3308F0A95DA19300971F
S11309E079F7B111B1931192CB010C94F704DC01A6
S11309F0FC01672F71917723E1F7329704C07C9152
S1130A006D9370836291AE17BF07C8F30895F8948D
S1050A10FFCF12
S1130A120000440120003A5030313A003A5030325A
S1130A223A003A5030333A003A5030310A003A50E0
S10D0A3230320A003A5030330A0053
S9030000FC
